:03000000020CF2FD
:0C0CF200787FE4F6D8FD758128020D39EA
:100BE7004333004323330044330044233300453366
:100BF7000046330046233300473300472333004181
:100C0700330041233300423300433400432334008D
:100C1700443400442334004534004634004623342A
:100C27000047340047233400413400412334004255
:100C37003400433500432335004435004423350051
:100C470045350046350046233500473500472335EF
:100C5700004135004123350042350000F2003D00D8
:100C6700F3000300F300BE00F4006300F500140076
:100C7700F500B100F6004500F600D100F70054007A
:100C8700F700D100F8004700F800B600F9001F0090
:100C9700F9008200F900DF00FA003700FA008A0045
:100CA700FA00D900FB002300FB006900FB00AA0043
:100CB700FB00E800FB002400F5005A00F5008F0058
:100CC700F200C100F300EF00F3001B00F400450041
:100CD700F5006C00F5009100F200B400F300D500B8
:0B0CE700F300F400F4001100F5002EF3
:100E7C001A090A0A00000404000A0A00000404000B
:0C0E8C00000004080A0A000004080A0A1A
:10080000120EFD759850438920758DFD758BFDD2B4
:10081000ACD2AFD28E120F07120E9DE4F508F5246C
:10082000C3E524941A74809480501E74092524F81A
:10083000E6F508120DF6C28CD2B77F307E75120E27
:100840001F05080508052480D7120E1BE4F508E5EE
:1008500023120D970B99300ACE310AE0320AF23397
:100860000B04340B16350B28360B3A370B4C380B70
:100870005D39094D4109174208E8430971440A13DB
:100880004509834609954709A7480A6D4909B94AA8
:1008900009CB4B09DD4C093B4D09294E0A7F4F0A14
:1008A000915009EF510A2552095F530A37540A5BE8
:1008B0005508FA560A015708D6580A495908C45A21
:1008C00000000BDCE4F508120DF4120E997BFF7AA0
:1008D0000B79E7020BD3750802120DF4120E997B07
:1008E000FF7A0B79EA020BD3750804120DF4120E8D
:1008F000997BFF7A0B79EE020BD3750806120DF483
:10090000C28CD2B77F307E75120E1F120E9D7BFFF8
:100910007A0B79F1020BD3750808120DF4120E99B7
:100920007BFF7A0B79F5020BD375080A120DF412CE
:100930000E997BFF7A0B79F8020BD375080C120D18
:10094000F4120E997BFF7A0B79FB020BD375080E1C
:10095000120DF4120E997BFF7A0B79FF020BD375FF
:100960000810120DF4120E997BFF7A0C7902020B1B
:10097000D3750812120DF4120E997BFF7A0C7906CA
:10098000020BD3750814120DF4120E997BFF7A0C2A
:100990007909020BD3750816120DF4120E997BFF1C
:1009A0007A0C790D020BD3750818120DF4120E99FA
:1009B0007BFF7A0C7910020BD375081A120DF41212
:1009C0000E997BFF7A0C7913020BD375081C120D5C
:1009D000F4120E997BFF7A0C7917020BD375081E5F
:1009E000120DF4120E997BFF7A0C791A020BD37553
:1009F0000820120DF4120E997BFF7A0C791E020B5F
:100A0000D3750822120DF4120E997BFF7A0C79210E
:100A1000020BD3750824120DF4120E997BFF7A0C89
:100A20007924020BD3750826120DF4120E997BFF60
:100A30007A0C7928020BD3750828120DF4120E993E
:100A40007BFF7A0C792B020BD375082A120DF41256
:100A50000E997BFF7A0C792F020BD375082C120D9F
:100A6000F4120E997BFF7A0C7932020BD375082EA3
:100A7000120DF4120E997BFF7A0C7936020BD375A6
:100A80000830120DF4120E997BFF7A0C7939020BA3
:100A9000D3750832E50825E02462F582E4340CF5CC
:100AA00083740193F58CE50825E02464F582E43431
:100AB0000CF583E4740193F58AD28C7F207EA11219
:100AC0000E1F120E997BFF7A0C793C020BD375082E
:100AD00034120DF4120E997BFF7A0C7940020BD37D
:100AE000750836120DF4120E997BFF7A0C794302C9
:100AF0000BD3750838120DF4120E997BFF7A0C791E
:100B000047020BD375083A120DF4120E997BFF7A47
:100B10000C794A020BD375083C120DF4120E997B26
:100B2000FF7A0C794D020BD375083E120DF4120EAC
:100B3000997BFF7A0C7951020BD3750840120DF4A2
:100B4000120E997BFF7A0C7954020BD3750842126E
:100B50000DF4120E997BFF7A0C7958807675084453
:100B6000E50825E02462F582E4340CF583740193F2
:100B7000F58CE50825E02464F582E4340CF583E483
:100B8000740193F58AD28C7F327E00120E1F120EF2
:100B9000997BFF7A0C795B803A750846E50825E079
:100BA0002462F582E4340CF583740193F58CE50836
:100BB00025E02464F582E4340CF583E4740193F5B4
:100BC0008AD28C7F007EF2120E1F120E997BFF7A62
:100BD0000C795F120E2A75236F02084C120E9DAF1E
:070BE00023120EF302084C82
:030F0700D2812272
:100E5600E4FDFCE4FBFAC3EB9FEE6480F8EA6480F1
:100E66009850070BBB00010A80EC0DBD00010CBCBD
:050E760003E1BDE8DE10
:010E7B002254
:0A0EE9008FA0C280120EC6D2822232
:0D0EC600C281D2827F017E00120E56C282D0
:070ED3007F0A7E00020E56AB
:040E9900C28CD2B77E
:100E9D007F38120EE97F0E120EE97F01120EE97FE7
:040EAD0080020EE9C8
:0A0EF3008FA0D280120EC6D2822218
:060E2A008B258A268927B2
:100E3000120EB18F28E528601CAB25AA26A927121F
:100E40000D7EFF120EF374012527F527E43526F5F4
:050E500026152880E0DA
:010E5500227A
:03002300020EDAF0
:0F0EDA00309809C29885992385239932C299329D
:03000B00020DBD26
:100DBD00C0E0C083C082C0D0E50825E02462F58282
:100DCD00E4340CF583740193F58CE50825E0246477
:100DDD00F582E4340CF583740193F58AB2B7D0D063
:070DED00D082D083D0E03278
:0A0EFD00758901D2AFD2A9C28C2280
:100DF400E50825E02462F582E4340CF5837401935C
:100E0400F58CE50825E02464F582E4340CF583E4EC
:0B0E1400740193F58AD28C7F507EC3DE
:0B0E1F00EF1FAC0670011E4C70F622A5
:100CFE00020800E493A3F8E493A34003F68001F204
:100D0E0008DFF48029E493A3F85407240CC8C333F6
:100D1E00C4540F4420C8834004F456800146F6DFC5
:100D2E00E4800B0102040810204080900E7CE47ECB
:100D3E00019360BCA3FF543F30E509541FFEE493BA
:100D4E00A360010ECF54C025E060A840B8E493A381
:100D5E00FAE493A3F8E493A3C8C582C8CAC583CAAC
:100D6E00F0A3C8C582C8CAC583CADFE9DEE780BE64
:010E98000059
:100D7E00BB010689828A83E0225002E722BBFE0273
:090D8E00E32289828A83E49322A6
:100D9700D083D082F8E4937012740193700DA3A3EB
:100DA70093F8740193F5828883E4737402936860FF
:060DB700EFA3A3A380DFFF
:100EB100E4FFFE120D7E600C0FEF70010E09E97068
:050EC100F20A80EF229F
:00000001FF
