:020000040800F2
:100000000028002061130008A1120008A7120008B0
:10001000AD120008B3120008B91200080000000079
:10002000000000000000000000000000BF120008F7
:10003000CB12000800000000D7120008E3120008ED
:10004000A9130008A9130008A9130008A9130008A0
:10005000A9130008A9130008A9130008A913000890
:10006000A9130008EF120008A9130008A91300083B
:10007000A9130008A9130008A9130008A913000870
:10008000A9130008A9130008A9130008A913000860
:10009000A9130008A9130008A9130008A913000850
:1000A000A9130008A9130008A9130008A913000840
:1000B00001130008A913000800000000A91300089C
:1000C000A91300080000000000000000A9130008A8
:1000D00000000000A9130008A91300080000000098
:1000E000A9130008A9130008A913000800000000C4
:1000F0000000000000000000000000000000000000
:0C01000000000000000000005FF808F1A3
:10010C0010B5054C237833B9044B13B10448AFF345
:10011C0000800123237010BD74000020000000003B
:10012C00D830000808B5034B1BB103490348AFF3A3
:10013C00008008BD0000000078000020D8300008C6
:10014C00034613F8012B002AFBD1181A013870470B
:10015C0081F0004102E000BF83F0004330B54FEA6C
:10016C0041044FEA430594EA050F08BF90EA020FD9
:10017C001FBF54EA000C55EA020C7FEA645C7FEA6C
:10018C00655C00F0E2804FEA5454D4EB5555B8BF8F
:10019C006D420CDD2C4480EA020281EA030382EA00
:1001AC00000083EA010180EA020281EA0303362D92
:1001BC0088BF30BD11F0004F4FEA01314FF4801C65
:1001CC004CEA113102D0404261EB410113F0004F77
:1001DC004FEA03334CEA133302D0524263EB43032E
:1001EC0094EA050F00F0A780A4F10104D5F1200ECC
:1001FC000DDB02FA0EFC22FA05F2801841F1000127
:10020C0003FA0EF2801843FA05F359410EE0A5F1FA
:10021C0020050EF1200E012A03FA0EFC28BF4CF02B
:10022C00020C43FA05F3C01851EBE37101F00045E1
:10023C0007D54FF0000EDCF1000C7EEB00006EEBEE
:10024C000101B1F5801F1BD3B1F5001F0CD3490878
:10025C005FEA30004FEA3C0C04F101044FEA4452CF
:10026C0012F5800F80F09A80BCF1004F08BF5FEA56
:10027C00500C50F1000041EB045141EA050130BD36
:10028C005FEA4C0C404141EB0101013C28BFB1F548
:10029C00801FE9D291F0000F04BF01460020B1FA93
:1002AC0081F308BF2033A3F10B03B3F120020CDA66
:1002BC000C3208DD02F1140CC2F10C0201FA0CF044
:1002CC0021FA02F10CE002F11402D8BFC2F1200CA9
:1002DC0001FA02F120FA0CFCDCBF41EA0C0190405F
:1002EC00E41AA2BF01EB0451294330BD6FEA0404A8
:1002FC001F3C1CDA0C340EDC04F11404C4F1200293
:10030C0020FA04F001FA02F340EA030021FA04F3A4
:10031C0045EA030130BDC4F10C04C4F1200220FAFB
:10032C0002F001FA04F340EA0300294630BD21FA39
:10033C0004F0294630BD94F0000F83F4801306BFFF
:10034C0081F480110134013D4EE77FEA645C18BFF3
:10035C007FEA655C29D094EA050F08BF90EA020F8A
:10036C0005D054EA000C04BF1946104630BD91EA82
:10037C00030F1EBF0021002030BD5FEA545C05D185
:10038C004000494128BF41F0004130BD14F58004C4
:10039C003CBF01F5801130BD01F0004545F0FE4138
:1003AC0041F470014FF0000030BD7FEA645C1ABF6D
:1003BC00194610467FEA655C1CBF0B46024650EAA4
:1003CC00013406BF52EA033591EA030F41F40021D0
:1003DC0030BD00BF90F0000F04BF0021704730B556
:1003EC004FF4806404F132044FF000054FF000012B
:1003FC0050E700BF90F0000F04BF0021704730B5EC
:10040C004FF4806404F1320410F0004548BF4042C0
:10041C004FF000013EE700BF42004FEAE2014FEA15
:10042C0031014FEA02701FBF12F07F4393F07F4FF0
:10043C0081F06051704732F07F4208BF704793F0F3
:10044C007F4F04BF41F40021704730B54FF4607406
:10045C0001F0004521F000411CE700BF50EA010209
:10046C0008BF704730B54FF000050AE050EA0102B2
:10047C0008BF704730B511F0004502D5404261EB22
:10048C0041014FF4806404F132045FEA915C3FF463
:10049C00D8AE4FF003025FEADC0C18BF03325FEA00
:1004AC00DC0C18BF033202EBDC02C2F1200300FAB1
:1004BC0003FC20FA02F001FA03FE40EA0E0021FAD6
:1004CC0002F11444BDE600BF70B54FF0FF0C4CF4C4
:1004DC00E06C1CEA11541DBF1CEA135594EA0C0F76
:1004EC0095EA0C0F00F0DEF82C4481EA030621EAB1
:1004FC004C5123EA4C5350EA013518BF52EA0335EC
:10050C0041F4801143F4801338D0A0FB02CE4FF09D
:10051C000005E1FB02E506F00042E0FB03E54FF0CD
:10052C000006E1FB03569CF0000F18BF4EF0010EC5
:10053C00A4F1FF04B6F5007F64F5407404D25FEAC1
:10054C004E0E6D4146EB060642EAC62141EA555174
:10055C004FEAC52040EA5E504FEACE2EB4F1FD0CB6
:10056C0088BFBCF5E06F1ED8BEF1004F08BF5FEA34
:10057C00500E50F1000041EB045170BD06F00046E6
:10058C0046EA010140EA020081EA0301B4EB5C0493
:10059C00C2BFD4EB0C0541EA045170BD41F480118B
:1005AC004FF0000E013C00F3AB8014F1360FDEBFB0
:1005BC00002001F0004170BDC4F10004203C35DA8C
:1005CC000C341BDC04F11404C4F1200500FA05F30F
:1005DC0020FA04F001FA05F240EA020001F00042B0
:1005EC0021F0004110EBD37021FA04F642EB060126
:1005FC005EEA430E08BF20EAD37070BDC4F10C0450
:10060C00C4F1200500FA04F320FA05F001FA04F213
:10061C0040EA020001F0004110EBD37041F10001FF
:10062C005EEA430E08BF20EAD37070BDC4F120050A
:10063C0000FA05F24EEA020E20FA04F301FA05F272
:10064C0043EA020321FA04F001F0004121FA04F21A
:10065C0020EA020000EBD3705EEA430E08BF20EAEA
:10066C00D37070BD94F0000F0FD101F00046400024
:10067C0041EB010111F4801F08BF013CF7D041EAA6
:10068C00060195F0000F18BF704703F000465200AA
:10069C0043EB030313F4801F08BF013DF7D043EA7B
:1006AC000603704794EA0C0F0CEA135518BF95EA31
:1006BC000C0F0CD050EA410618BF52EA4306D1D1B8
:1006CC0081EA030101F000414FF0000070BD50EAD7
:1006DC00410606BF1046194652EA430619D094EA61
:1006EC000C0F02D150EA013613D195EA0C0F05D14B
:1006FC0052EA03361CBF104619460AD181EA03019F
:10070C0001F0004141F0FE4141F470014FF0000056
:10071C0070BD41F0FE4141F4780170BD70B54FF0F1
:10072C00FF0C4CF4E06C1CEA11541DBF1CEA135571
:10073C0094EA0C0F95EA0C0F00F0A7F8A4EB050453
:10074C0081EA030E52EA03354FEA013100F088804A
:10075C004FEA03334FF0805545EA131343EA126313
:10076C004FEA022245EA111545EA10654FEA0026C8
:10077C000EF000419D4208BF964244F1FD0404F581
:10078C00407402D25B084FEA3202B61A65EB0305DD
:10079C005B084FEA32024FF480104FF4002CB6EB9A
:1007AC00020E75EB030E22BFB61A754640EA0C001A
:1007BC005B084FEA3202B6EB020E75EB030E22BF5A
:1007CC00B61A754640EA5C005B084FEA3202B6EB9B
:1007DC00020E75EB030E22BFB61A754640EA9C005A
:1007EC005B084FEA3202B6EB020E75EB030E22BF2A
:1007FC00B61A754640EADC0055EA060E18D04FEAE8
:10080C00051545EA16754FEA06164FEAC30343EA87
:10081C0052734FEAC2025FEA1C1CC0D111F4801F54
:10082C000BD141EA00014FF000004FF0004CB6E74D
:10083C0011F4801F04BF01430020B4F1FD0C88BFEC
:10084C00BCF5E06F3FF6AFAEB5EB030C04BFB6EBF7
:10085C00020C5FEA500C50F1000041EB045170BDEA
:10086C000EF0004E4EEA113114EB5C04C2BFD4EB17
:10087C000C0541EA045170BD41F480114FF0000E9B
:10088C00013C90E645EA060E8DE60CEA135594EA17
:10089C000C0F08BF95EA0C0F3FF43BAF94EA0C0F1A
:1008AC000AD150EA01347FF434AF95EA0C0F7FF48F
:1008BC0025AF104619462CE795EA0C0F06D152EAE3
:1008CC0003353FF4FDAE1046194622E750EA4106C7
:1008DC0018BF52EA43067FF4C5AE50EA41047FF4D8
:1008EC000DAF52EA43057FF4EBAE12E74FF0FF3C3D
:1008FC0006E000BF4FF0010C02E000BF4FF0010C0E
:10090C004DF804CD4FEA410C7FEA6C5C4FEA430C86
:10091C0018BF7FEA6C5C1BD001B050EA410C0CBFD5
:10092C0052EA430C91EA030F02BF90EA020F002037
:10093C00704710F1000F91EA030F58BF994208BF9E
:10094C0090422CBFD8176FEAE37040F0010070475B
:10095C004FEA410C7FEA6C5C02D150EA013C07D1B2
:10096C004FEA430C7FEA6C5CD6D152EA033CD3D0FD
:10097C005DF8040B704700BF8446104662468C46F7
:10098C001946634600E000BF01B5FFF7B7FF00282A
:10099C0048BF10F1000F01BD4DF808EDFFF7F4FF53
:1009AC000CBF012000205DF808FB00BF4DF808EDDE
:1009BC00FFF7EAFF34BF012000205DF808FB00BF01
:1009CC004DF808EDFFF7E0FF94BF012000205DF823
:1009DC0008FB00BF4DF808EDFFF7CEFF94BF0120D8
:1009EC0000205DF808FB00BF4DF808EDFFF7C4FFD1
:1009FC0034BF012000205DF808FB00BF4FEA410C1A
:100A0C007FEA6C5C02D150EA013C0AD14FEA430CFC
:100A1C007FEA6C5C02D152EA033C02D14FF0000039
:100A2C0070474FF0010070474FEA410212F5001277
:100A3C0015D211D56FF47873B3EB625212D94FEA19
:100A4C00C12343F0004343EA505311F0004F23FA03
:100A5C0002F018BF404270474FF00000704750EA58
:100A6C00013005D111F0004008BF6FF00040704715
:100A7C004FF00000704700BF80B582B000AF7860C7
:100A8C007868FFF75DFB03469AB214237968034834
:100A9C0002F023F800BF0837BD4680BD9800002047
:100AAC0080B500AF0A4B4FF480710022184600F05D
:100ABC0085FF382000F0A8F80E2000F0A5F80120E2
:100ACC0000F0A2F8802000F09FF800BF80BD00BFAE
:100ADC00000C014080B582B000AF0346FB71FB797E
:100AEC0003F00103002B06D0464B012101221846CE
:100AFC0000F064FF05E0434B01210022184600F092
:100B0C005DFFFB7903F00203002B06D03D4B022165
:100B1C000122184600F052FF05E03A4B0221002258
:100B2C00184600F04BFFFB7903F00403002B06D0B2
:100B3C00344B04210122184600F040FF05E0314BF4
:100B4C0004210022184600F039FFFB7903F008035A
:100B5C00002B06D02B4B08210122184600F02EFF4B
:100B6C0005E0284B08210022184600F027FFFB79EE
:100B7C0003F01003002B06D0224B10210122184643
:100B8C0000F01CFF05E01F4B10210022184600F05E
:100B9C0015FFFB7903F02003002B06D0194B202105
:100BAC000122184600F00AFF05E0164B2021002216
:100BBC00184600F003FFFB7903F04003002B06D02E
:100BCC00104B40210122184600F0F8FE05E00D4BB9
:100BDC0040210022184600F0F1FE97F90730002B57
:100BEC0006DA084B80210122184600F0E7FE05E0EA
:100BFC00044B80210022184600F0E0FE00BF0837AD
:100C0C00BD4680BD0008014080B582B000AF0346F0
:100C1C00FB71FB791846FFF75DFF164B8021002214
:100C2C00184600F0CBFE134B4FF48071002218468F
:100C3C0000F0C4FE0F4B4FF400710122184600F077
:100C4C00BDFE012000F00EFC0A4B4FF40071002297
:100C5C00184600F0B3FE012000F004FC054B4FF4E5
:100C6C0000710122184600F0A9FE00BF0837BD46EE
:100C7C0080BD00BF000C014080B582B000AF0346C0
:100C8C00FB71FB791846FFF725FF164B80210122DB
:100C9C00184600F093FE134B4FF480710022184657
:100CAC0000F08CFE0F4B4FF400710122184600F03F
:100CBC0085FE012000F0D6FB0A4B4FF40071002298
:100CCC00184600F07BFE012000F0CCFB054B4FF4E6
:100CDC0000710122184600F071FE00BF0837BD46B6
:100CEC0080BD00BF000C014080B584B000AF7860BF
:100CFC000023FB6009E0FB687A6813441B781846F4
:100D0C00FFF7BAFFFB680133FB60FB687A6813449A
:100D1C001B78002BEFD100BF00BF1037BD4680BD44
:100D2C0080B400AF034B00221A6000BFBD4680BCEC
:100D3C00704700BF9400002080B400AF044B1B68C8
:100D4C000133034A136000BFBD4680BC704700BF2F
:100D5C009400002080B58CB000AF00F021FB00F0B7
:100D6C00BFF800F073F900F043F900F0F3F85648BF
:100D7C0001F0C8FAFFF794FE544B00221A60544B52
:100D8C0000221A605348FFF7AFFF504B1A68504BC4
:100D9C001B689A42F9D04E4B1B684C4A13604C4B63
:100DAC00196807F114034FF46162184602F000F859
:100DBC007B69FB62464B196807F11C033C22184601
:100DCC0001F0F6FFFB691846FFF714FB4FF0000229
:100DDC00414B02F033F802460B4610461946FFF71A
:100DEC0023FE0346BB623A4B1B681846FFF702FB17
:100DFC004FF00002384B02F021F802460B46104629
:100E0C001946FFF711FE03467B62FB6A334A82FBED
:100E1C0003129210DB17D31ADBB23033DBB23B7107
:100E2C00FA6A2E4B83FB02139910D317C91A0B467F
:100E3C009B000B445B00D11ACBB23033DBB27B711D
:100E4C003A23BB71BB6A254A82FB03129210DB1753
:100E5C00D31ADBB23033DBB2FB71BA6A1F4B83FBA4
:100E6C0002139910D317C91A0B469B000B445B0055
:100E7C00D11ACBB23033DBB23B723A237B727B6A32
:100E8C00164A82FB03129210DB17D31ADBB23033F3
:100E9C00DBB2BB727A6A114B83FB02139910D31726
:100EAC00C91A0B469B000B445B00D11ACBB23033F2
:100EBC00DBB2FB7200233B730120FFF7A5FE3B1D49
:100ECC001846FFF711FF60E7E0000020DC0000206F
:100EDC0094000020F030000800004E406766666603
:100EEC0080B590B000AF07F11803282200211846F6
:100EFC0001F09CFF3B1D00221A605A609A60DA6078
:100F0C001A610123BB614FF48033FB6100237B63C7
:100F1C0007F11803184600F08BFD0346002B01D097
:100F2C0000F010F90F237B600123BB600023FB60F2
:100F3C0000233B6100237B613B1D0021184600F020
:100F4C00F7FF0346002B01D000F0FCF800BF403740
:100F5C00BD4680BD80B586B000AF07F10803002206
:100F6C001A605A609A60DA603B4600221A605A6036
:100F7C001E4B4FF080421A601C4B4FF448725A6063
:100F8C001A4B00229A60194B4FF4FA72DA60174B25
:100F9C0000221A61154B80229A61144801F062F903
:100FAC000346002B01D000F0CDF84FF48053BB600A
:100FBC0007F1080319460D4801F0F8FA0346002B17
:100FCC0001D000F0BFF800233B6000237B603B4660
:100FDC001946064801F0CAFC0346002B01D000F06C
:100FEC00B1F800BF1837BD4680BD00BFE00000203F
:100FFC0080B500AF124B134A1A60114B4FF41652C6
:10100C005A600F4B00229A600D4B0022DA600C4B99
:10101C0000221A610A4B0C225A61094B00229A6178
:10102C00074B0022DA61064801F00AFD0346002B4B
:10103C0001D000F087F80448FFF71EFD00BF80BD0B
:10104C009800002000380140FC30000880B588B0C2
:10105C0000AF07F1100300221A605A609A60DA6040
:10106C00344B9B69334A43F020039361314B9B69AA
:10107C0003F02003FB60FB682E4B9B692D4A43F069
:10108C00040393612B4B9B6903F00403BB60BB68A7
:10109C00284B9B69274A43F008039361254B9B69B6
:1010AC0003F008037B607B680022FF21224800F0DC
:1010BC0085FC002240F28121204800F07FFC0122B7
:1010CC004FF480711D4800F079FCFF233B61012334
:1010DC007B610023BB610223FB6107F110031946FE
:1010EC00154800F0F1FA40F281333B6101237B613A
:1010FC000023BB610223FB6107F1100319460F4863
:10110C0000F0E2FA08233B610D4B7B610123BB61CC
:10111C0007F110031946094800F0D6FA0022002105
:10112C00092000F09AFA092000F0B3FA00BF20372A
:10113C00BD4680BD0010024000080140000C01407B
:10114C000000211080B400AF72B600BFFEE70000B3
:10115C0080B485B000AF154B9B69144A43F0010372
:10116C009361124B9B6903F00103BB60BB680F4B8F
:10117C00DB690E4A43F08053D3610C4BDB6903F0FF
:10118C0080537B607B680A4B5B68FB60FB6823F0D9
:10119C00E063FB60FB6843F08063FB60044AFB6820
:1011AC00536000BF1437BD4680BC7047001002402E
:1011BC000000014080B584B000AF78607B681B688C
:1011CC00B3F1804F13D10C4BDB690B4A43F0010395
:1011DC00D361094BDB6903F00103FB60FB68002260
:1011EC0000211C2000F039FA1C2000F052FA00BF3C
:1011FC001037BD4680BD00BF0010024080B588B0DE
:10120C0000AF786007F1100300221A605A609A60F0
:10121C00DA607B681B681C4A934231D11B4B9B697B
:10122C001A4A43F480439361184B9B6903F480433F
:10123C00FB60FB68154B9B69144A43F004039361F4
:10124C00124B9B6903F00403BB60BB684FF4007343
:10125C003B6102237B610323FB6107F110031946F9
:10126C000B4800F031FA4FF480633B6100237B6143
:10127C000023BB6107F110031946054800F024FA5E
:10128C0000BF2037BD4680BD003801400010024031
:10129C000008014080B400AFFEE780B400AFFEE769
:1012AC0080B400AFFEE780B400AFFEE780B400AFBF
:1012BC00FEE780B400AF00BFBD4680BC704780B471
:1012CC0000AF00BFBD4680BC704780B400AF00BF0C
:1012DC00BD4680BC704780B500AF00F0A7F800BFDA
:1012EC0080BD80B500AF082000F080FBFFF718FD33
:1012FC0000BF80BD80B500AF104801F04FF8104B17
:10130C001B6801330E4A13600D4B1B68142B09D15B
:10131C000B4B00221A60FFF70FFD00220121094838
:10132C0000F04CFB064B1B68022B04D1012201215F
:10133C00044800F043FB00BF80BD00BFE00000206C
:10134C0090000020000C014080B400AF00BFBD46EF
:10135C0080BC70470C480D490D4A002302E0D4585C
:10136C00C4500433C4188C42F9D30A4A0A4C0023E3
:10137C0001E013600432A242FBD3FFF7E5FF01F05A
:10138C0031FDFFF7E7FC70470000002074000020DF
:10139C0050310008740000202C010020FEE70000F2
:1013AC0080B500AF084B1B68074A43F0100313606D
:1013BC00032000F047F90F2000F008F8FFF7C8FEF3
:1013CC000023184680BD00BF0020024080B582B0CB
:1013DC0000AF7860124B1A68124B1B7819464FF409
:1013EC007A73B3FBF1F3B2FBF3F3184600F05FF939
:1013FC000346002B01D001230EE07B680F2B0AD88B
:10140C00002279684FF0FF3000F027F9064A7B681C
:10141C001360002300E0012318460837BD4680BD49
:10142C0000000020080000200400002080B400AF61
:10143C00054B1B781A46054B1B681344034A136073
:10144C0000BFBD4680BC704708000020280100206A
:10145C0080B400AF024B1B681846BD4680BC704779
:10146C002801002080B584B000AF7860FFF7F0FF52
:10147C00B8607B68FB60FB68B3F1FF3F05D00A4B9B
:10148C001B781A46FB681344FB6000BFFFF7E0FFB4
:10149C000246BB68D31AFA689A42F7D800BF00BF5D
:1014AC001037BD4680BD00BF0800002080B485B059
:1014BC0000AF78607B6803F00703FB600C4BDB68C4
:1014CC00BB60BA684FF6FF031340BB60FB681A029F
:1014DC00BB68134343F0BF6343F40033BB60044A5F
:1014EC00BB68D36000BF1437BD4680BC704700BFDB
:1014FC0000ED00E080B400AF044BDB681B0A03F086
:10150C0007031846BD4680BC704700BF00ED00E0E5
:10151C0080B483B000AF0346FB7197F90730002B02
:10152C000BDBFB7903F01F02064997F907305B09C7
:10153C00012000FA02F241F8232000BF0C37BD460F
:10154C0080BC704700E100E080B483B000AF03467C
:10155C003960FB7197F90730002B0ADB3B68DAB274
:10156C000C4997F907301201D2B20B4483F80023CF
:10157C000AE03B68DAB20849FB7903F00F03043B3D
:10158C001201D2B20B441A7600BF0C37BD4680BC98
:10159C00704700BF00E100E000ED00E080B489B0CE
:1015AC0000AFF860B9607A60FB6803F00703FB6179
:1015BC00FB69C3F10703042B28BF0423BB61FB6940
:1015CC000433062B02D9FB69033B00E000237B614B
:1015DC004FF0FF32BB6902FA03F3DA43BB681A40DF
:1015EC007B699A404FF0FF317B6901FA03F3D943D1
:1015FC007B680B40134318462437BD4680BC7047AC
:10160C0080B582B000AF78607B68013BB3F1807F1E
:10161C0001D301230FE00A4A7B68013B53600F2181
:10162C004FF0FF30FFF790FF054B00229A60044B00
:10163C0007221A60002318460837BD4680BD00BF3C
:10164C0010E000E080B582B000AF78607868FFF7FA
:10165C002DFF00BF0837BD4680BD80B586B000AFFA
:10166C000346B9607A60FB7300237B61FFF742FF8E
:10167C0078617A68B9687869FFF790FF024697F944
:10168C000F3011461846FFF75FFF00BF1837BD46F5
:10169C0080BD80B582B000AF0346FB7197F907306F
:1016AC001846FFF735FF00BF0837BD4680BD80B533
:1016BC0082B000AF78607868FFF7A2FF0346184647
:1016CC000837BD4680BD000080B48BB000AF786099
:1016DC00396000237B6200233B6248E101227B6A74
:1016EC0002FA03F3FB613B681B68FA691340BB61A8
:1016FC00BA69FB699A4240F037813B685B68A34A40
:10170C0093425ED0A14A934275D8A14A934258D0D5
:10171C009F4A93426FD89F4A934252D09D4A93421C
:10172C0069D89D4A93424CD09B4A934263D89B4ABA
:10173C00934246D0994A93425DD8122B2AD8122B49
:10174C0059D801A252F823F0CF170008A9170008A6
:10175C00BB170008FD170008031800080318000841
:10176C0003180008031800080318000803180008E1
:10177C0003180008031800080318000803180008D1
:10178C00031800080318000803180008B117000814
:10179C00C5170008824A934213D02CE03B68DB68E3
:1017AC003B6229E03B68DB6804333B6224E03B6826
:1017BC00DB6808333B621FE03B68DB680C333B6241
:1017CC001AE03B689B68002B02D104233B6213E0B8
:1017DC003B689B68012B05D108233B627B68FA6947
:1017EC001A6109E008233B627B68FA695A6103E0DD
:1017FC0000233B6200E000BFBB69FF2B01D87B6874
:10180C0001E07B6804337B61BB69FF2B02D87B6AE8
:10181C009B0002E07B6A083B9B003B617B691A687A
:10182C000F213B6901FA03F3DB431A40396A3B6928
:10183C0001FA03F31A437B691A603B685B6803F097
:10184C008053002B00F09080564B9B69554A43F017
:10185C0001039361534B9B6903F00103BB60BB68AD
:10186C00514A7B6A9B08023352F82330FB607B6A37
:10187C0003F003039B000F2202FA03F3DB43FA6825
:10188C001340FB607B68494A93420DD07B68484A01
:10189C00934207D07B68474A934201D1022304E06C
:1018AC00032302E0012300E000237A6A02F0030222
:1018BC0092009340FA681343FB603B497B6A9B0898
:1018CC000233FA6841F823203B685B6803F48033E9
:1018DC00002B06D0384B1A683749BB6913430B6091
:1018EC0006E0354B1A68BB69DB43334913400B6088
:1018FC003B685B6803F40033002B06D02E4B5A6810
:10190C002D49BB6913434B6006E02B4B5A68BB69EE
:10191C00DB43294913404B603B685B6803F480133D
:10192C00002B06D0244B9A682349BB6913438B6068
:10193C0006E0214B9A68BB69DB431F4913408B605F
:10194C003B685B6803F40013002B06D01A4BDA6873
:10195C001949BB691343CB6006E0174BDA68BB69C6
:10196C00DB4315491340CB607B6A01337B623B68D8
:10197C001A687B6A22FA03F3002B7FF4AFAE00BF28
:10198C0000BF2C37BD4680BC704700BF0000321032
:10199C000000311000002210000021100000121075
:1019AC00000011100010024000000140000801402E
:1019BC00000C0140001001400004014080B483B0D1
:1019CC0000AF78600B467B8013467B707B78002BD6
:1019DC0003D07A887B681A6103E07B881A047B68E1
:1019EC001A6100BF0C37BD4680BC704780B582B011
:1019FC0000AF0346FB80084B5A69FB881340002B51
:101A0C0006D0054AFB885361FB88184600F006F89F
:101A1C0000BF0837BD4680BD0004014080B483B0D0
:101A2C0000AF0346FB8000BF0C37BD4680BC70473F
:101A3C0080B586B000AF78607B68002B01D10123A4
:101A4C006CE27B681B6803F00103002B00F08780BD
:101A5C00924B5B6803F00C03042B0CD08F4B5B6830
:101A6C0003F00C03082B12D18C4B5B6803F480330E
:101A7C00B3F5803F0BD1894B1B6803F40033002B6B
:101A8C006CD07B685B68002B68D1012346E27B68D5
:101A9C005B68B3F5803F06D1804B1B687F4A43F4EB
:101AAC00803313602EE07B685B68002B0CD17B4B82
:101ABC001B687A4A23F480331360784B1B68774A8F
:101ACC0023F4802313601DE07B685B68B3F5A02FC3
:101ADC000CD1724B1B68714A43F4802313606F4B1B
:101AEC001B686E4A43F4803313600BE06B4B1B682E
:101AFC006A4A23F480331360684B1B68674A23F4EB
:101B0C00802313607B685B68002B13D0FFF7A0FC6D
:101B1C00386108E0FFF79CFC02463B69D31A642B42
:101B2C0001D90323FAE15D4B1B6803F40033002B4E
:101B3C00F0D014E0FFF78CFC386108E0FFF788FC6C
:101B4C0002463B69D31A642B01D90323E6E1534BBC
:101B5C001B6803F40033002BF0D100E000BF7B685E
:101B6C001B6803F00203002B63D04C4B5B6803F043
:101B7C000C03002B0BD0494B5B6803F00C03082BB8
:101B8C001CD1464B5B6803F48033002B16D1434BBE
:101B9C001B6803F00203002B05D07B681B69012B2B
:101BAC0001D00123BAE13D4B1B6823F0F8027B689E
:101BBC005B69DB00394913430B603AE07B681B69B6
:101BCC00002B20D0364B01221A60FFF741FC386104
:101BDC0008E0FFF73DFC02463B69D31A022B01D902
:101BEC0003239BE12D4B1B6803F00203002BF0D069
:101BFC002A4B1B6823F0F8027B685B69DB002749E2
:101C0C0013430B6015E0264B00221A60FFF720FCF3
:101C1C00386108E0FFF71CFC02463B69D31A022B23
:101C2C0001D903237AE11D4B1B6803F00203002B3F
:101C3C00F0D17B681B6803F00803002B3AD07B685B
:101C4C009B69002B19D0174B01221A60FFF700FC7F
:101C5C00386108E0FFF7FCFB02463B69D31A022B04
:101C6C0001D903235AE10D4B5B6A03F00203002BED
:101C7C00F0D0012000F0D8FA1CE00A4B00221A60C8
:101C8C00FFF7E6FB38610FE0FFF7E2FB02463B692A
:101C9C00D31A022B08D9032340E100BF00100240E5
:101CAC0000004242800442429E4B5B6A03F00203F6
:101CBC00002BE9D17B681B6803F00403002B00F0B8
:101CCC00A6800023FB75974BDB6903F08053002B38
:101CDC000DD1944BDB69934A43F08053D361914B04
:101CEC00DB6903F08053BB60BB680123FB758E4B33
:101CFC001B6803F48073002B18D18B4B1B688A4A2A
:101D0C0043F480731360FFF7A3FB386108E0FFF71F
:101D1C009FFB02463B69D31A642B01D90323FDE0D8
:101D2C00814B1B6803F48073002BF0D07B68DB685D
:101D3C00012B06D17B4B1B6A7A4A43F001031362D9
:101D4C002DE07B68DB68002B0CD1764B1B6A754A47
:101D5C0023F001031362734B1B6A724A23F00403D2
:101D6C0013621CE07B68DB68052B0CD16D4B1B6A86
:101D7C006C4A43F0040313626A4B1B6A694A43F0D2
:101D8C00010313620BE0674B1B6A664A23F00103E5
:101D9C001362644B1B6A634A23F0040313627B686F
:101DAC00DB68002B15D0FFF753FB38610AE0FFF717
:101DBC004FFB02463B69D31A41F28832934201D958
:101DCC000323ABE0574B1B6A03F00203002BEED04E
:101DDC0014E0FFF73DFB38610AE0FFF739FB0246E0
:101DEC003B69D31A41F28832934201D9032395E01F
:101DFC004C4B1B6A03F00203002BEED1FB7D012B35
:101E0C0005D1484BDB69474A23F08053D3617B688B
:101E1C00DB69002B00F08180424B5B6803F00C0304
:101E2C00082B61D07B68DB69022B46D13F4B00222B
:101E3C001A60FFF70DFB386108E0FFF709FB02465B
:101E4C003B69D31A022B01D9032367E0354B1B687E
:101E5C0003F00073002BF0D17B681B6AB3F5803F55
:101E6C0008D1304B5B6823F400327B689B682D49AA
:101E7C0013434B602B4B5B6823F474127B68196A19
:101E8C007B685B6A0B43274913434B60274B01224A
:101E9C001A60FFF7DDFA386108E0FFF7D9FA02465D
:101EAC003B69D31A022B01D9032337E01D4B1B6866
:101EBC0003F00073002BF0D02FE01C4B00221A60B3
:101ECC00FFF7C6FA386108E0FFF7C2FA02463B6931
:101EDC00D31A022B01D9032320E0124B1B6803F009
:101EEC000073002BF0D118E07B68DB69012B01D16A
:101EFC00012313E00B4B5B68FB60FB6803F480323F
:101F0C007B681B6A9A4206D1FB6803F470127B68EB
:101F1C005B6A9A4201D0012300E00023184618376F
:101F2C00BD4680BD0010024000700040600042427F
:101F3C0080B584B000AF786039607B68002B01D12C
:101F4C000123D0E06A4B1B6803F007033A689A42FE
:101F5C0010D9674B1B6823F0070265493B68134394
:101F6C000B60634B1B6803F007033A689A4201D07D
:101F7C000123B8E07B681B6803F00203002B20D020
:101F8C007B681B6803F00403002B05D0594B5B687E
:101F9C00584A43F4E06353607B681B6803F0080302
:101FAC00002B05D0534B5B68524A43F4605353608B
:101FBC00504B5B6823F0F0027B689B684D491343E0
:101FCC004B607B681B6803F00103002B40D07B68DF
:101FDC005B68012B07D1474B1B6803F40033002BC4
:101FEC0015D101237FE07B685B68022B07D1414B45
:101FFC001B6803F00073002B09D1012373E03D4BE8
:10200C001B6803F00203002B01D101236BE0394B59
:10201C005B6823F003027B685B68364913434B60B3
:10202C00FFF716FAF8600AE0FFF712FA0246FB68AF
:10203C00D31A41F28832934201D9032353E02D4B3A
:10204C005B6803F00C027B685B689B009A42EBD1E7
:10205C00274B1B6803F007033A689A4210D2244BB3
:10206C001B6823F0070222493B6813430B60204B8B
:10207C001B6803F007033A689A4201D0012332E04F
:10208C007B681B6803F00403002B08D0194B5B68BA
:10209C0023F4E0627B68DB68164913434B607B6872
:1020AC001B6803F00803002B09D0124B5B6823F468
:1020BC0060527B681B69DB000E4913434B6000F0D8
:1020CC0021F802460B4B5B681B0903F00F030A490E
:1020DC00CB5C22FA03F3094A1360094B1B681846C0
:1020EC00FFF774F9002318461037BD4680BD00BFBA
:1020FC0000200240001002402031000800000020A7
:10210C000400002090B48AB000AF2A4B3C1D0FCBCA
:10211C0084E80F0040F201233B800023FB61002385
:10212C00BB6100237B6200237B6100233B62224B5B
:10213C005B68FB61FB6903F00C03042B02D0082BDA
:10214C0003D02DE01D4B3B622DE0FB699B0C03F093
:10215C000F0307F12802134413F8243C7B61FB693D
:10216C0003F48033002B13D0134B5B685B0C03F030
:10217C00010307F12802134413F8283CBB617B6967
:10218C000E4A02FB03F2BB69B2FBF3F37B6204E081
:10219C007B690B4A02FB03F37B627B6A3B6202E0C6
:1021AC00064B3B6200BF3B6A18462837BD4690BCC5
:1021BC00704700BF103100080010024000127A0076
:1021CC0000093D0080B400AF024B1B681846BD46A9
:1021DC0080BC70470000002080B500AFFFF7F2FF15
:1021EC000246054B5B681B0A03F007030349CB5CF3
:1021FC0022FA03F3184680BD00100240303100086B
:10220C0080B500AFFFF7DEFF0246054B5B68DB0ACB
:10221C0003F007030349CB5C22FA03F3184680BD95
:10222C00001002403031000880B485B000AF7860F7
:10223C000A4B1B680A4AA2FB03235B0A7A6802FB5F
:10224C0003F3FB6000BFFB685A1EFA60002BF9D148
:10225C0000BF00BF1437BD4680BC70470000002093
:10226C00D34D621080B582B000AF78607B68002BD4
:10227C0001D1012341E07B6893F83D30DBB2002BA8
:10228C0006D17B68002283F83C207868FEF792FF29
:10229C007B68022283F83D207B681A687B680433D4
:1022AC001946104600F074FA7B68012283F8462028
:1022BC007B68012283F83E207B68012283F83F2053
:1022CC007B68012283F840207B68012283F841203F
:1022DC007B68012283F842207B68012283F843202B
:1022EC007B68012283F844207B68012283F8452017
:1022FC007B68012283F83D20002318460837BD4631
:10230C0080BD000080B485B000AF78607B6893F826
:10231C003D30DBB2012B01D0012335E07B6802227A
:10232C0083F83D207B681B68DA687B681B6842F089
:10233C000102DA607B681B68164A934209D07B68FD
:10234C001B68B3F1804F04D07B681B68124A934220
:10235C0011D17B681B689B6803F00703FB60FB686B
:10236C00062B10D07B681B681A687B681B6842F0D0
:10237C0001021A6007E07B681B681A687B681B689F
:10238C0042F001021A60002318461437BD4680BC87
:10239C00704700BF002C01400004004080B582B0A3
:1023AC0000AF78607B681B681B6903F00203022B8B
:1023BC0022D17B681B68DB6803F00203022B1BD164
:1023CC007B681B686FF002021A617B6801221A7726
:1023DC007B681B689B6903F00303002B03D07868B0
:1023EC0000F0BAF905E0786800F0ADF9786800F013
:1023FC00BCF97B6800221A777B681B681B6903F0A9
:10240C000403042B22D17B681B68DB6803F00403F4
:10241C00042B1BD17B681B686FF004021A617B686C
:10242C0002221A777B681B689B6903F44073002BAC
:10243C0003D0786800F090F905E0786800F083F933
:10244C00786800F092F97B6800221A777B681B6829
:10245C001B6903F00803082B22D17B681B68DB681F
:10246C0003F00803082B1BD17B681B686FF0080274
:10247C001A617B6804221A777B681B68DB6903F09E
:10248C000303002B03D0786800F066F905E0786848
:10249C0000F059F9786800F068F97B6800221A7727
:1024AC007B681B681B6903F01003102B22D17B681F
:1024BC001B68DB6803F01003102B1BD17B681B68B7
:1024CC006FF010021A617B6808221A777B681B6810
:1024DC00DB6903F44073002B03D0786800F03CF9FF
:1024EC0005E0786800F02FF9786800F03EF97B6819
:1024FC0000221A777B681B681B6903F00103012B10
:10250C000ED17B681B68DB6803F00103012B07D13C
:10251C007B681B686FF001021A61786800F00AF999
:10252C007B681B681B6903F08003802B0ED17B68D2
:10253C001B68DB6803F08003802B07D17B681B686A
:10254C006FF080021A61786800F071FA7B681B6882
:10255C001B6903F04003402B0ED17B681B68DB68C2
:10256C0003F04003402B07D17B681B686FF04002DF
:10257C001A61786800F002F97B681B681B6903F02C
:10258C002003202B0ED17B681B68DB6803F0200333
:10259C00202B07D17B681B686FF020021A617868CA
:1025AC0000F03CFA00BF0837BD4680BD80B584B052
:1025BC0000AF786039607B6893F83C30012B01D117
:1025CC000223B3E07B68012283F83C207B68022263
:1025DC0083F83D207B681B689B68FB60FB6823F0DD
:1025EC007703FB60FB6823F47F43FB607B681B680D
:1025FC00FA689A603B681B68B3F5005F3ED0B3F590
:10260C00005F00F28780B3F5805F00F08580B3F542
:10261C00805F7FD8702B1AD0702B7BD8602B50D05A
:10262C00602B77D8502B3CD0502B73D8402B58D0E4
:10263C00402B6FD8302B64D0302B6BD8202B60D034
:10264C00202B67D8002B5CD0102B5AD062E07B6813
:10265C0018683B6899683B685A683B68DB6800F00F
:10266C0066F97B681B689B68FB60FB6843F077032B
:10267C00FB607B681B68FA689A604EE07B681868A0
:10268C003B6899683B685A683B68DB6800F04FF917
:10269C007B681B689A687B681B6842F480429A606E
:1026AC003BE07B6818683B6859683B68DB681A46F6
:1026BC0000F0C6F87B681B685021184600F01DF925
:1026CC002BE07B6818683B6859683B68DB681A46E6
:1026DC0000F0E4F87B681B686021184600F00DF9E7
:1026EC001BE07B6818683B6859683B68DB681A46D6
:1026FC0000F0A6F87B681B684021184600F0FDF836
:10270C000BE07B681A683B681B681946104600F0A2
:10271C00F4F802E000BF00E000BF7B68012283F800
:10272C003D207B68002283F83C200023184610379C
:10273C00BD4680BD80B483B000AF786000BF0C375D
:10274C00BD4680BC704780B483B000AF786000BFDA
:10275C000C37BD4680BC704780B483B000AF786046
:10276C0000BF0C37BD4680BC704780B483B000AF4F
:10277C00786000BF0C37BD4680BC704780B483B016
:10278C0000AF786000BF0C37BD4680BC70470000BE
:10279C0080B485B000AF786039607B681B68FB60E3
:1027AC007B68254A934207D07B68B3F1804F03D0F6
:1027BC007B68224A934208D1FB6823F07003FB60CC
:1027CC003B685B68FA681343FB607B681A4A934268
:1027DC0007D07B68B3F1804F03D07B68174A9342D4
:1027EC0008D1FB6823F44073FB603B68DB68FA6834
:1027FC001343FB60FB6823F080023B685B69134367
:10280C00FB607B68FA681A603B689A687B68DA62DE
:10281C003B681A687B689A627B68074A934203D1CB
:10282C003B681A697B681A637B6801225A6100BF96
:10283C001437BD4680BC7047002C0140000400409A
:10284C0080B487B000AFF860B9607A60FB681B6A2F
:10285C007B61FB681B6A23F00102FB681A62FB6850
:10286C009B693B613B6923F0F0033B617B681B0177
:10287C003A6913433B617B6923F00A037B617A69F4
:10288C00BB6813437B61FB683A699A61FB687A69A0
:10289C001A6200BF1C37BD4680BC704780B487B03D
:1028AC0000AFF860B9607A60FB681B6A23F0100215
:1028BC00FB681A62FB689B697B61FB681B6A3B6166
:1028CC007B6923F470437B617B681B037A69134338
:1028DC007B613B6923F0A0033B61BB681B013A6938
:1028EC0013433B61FB687A699A61FB683A691A6227
:1028FC0000BF1C37BD4680BC704780B485B000AFAC
:10290C00786039607B689B68FB60FB6823F0700320
:10291C00FB603A68FB68134343F00703FB607B687A
:10292C00FA689A6000BF1437BD4680BC704780B40B
:10293C0087B000AFF860B9607A603B60FB689B6859
:10294C007B617B6923F47F437B613B681A027B6864
:10295C001A43BB6813437A6913437B61FB687A693A
:10296C009A6000BF1C37BD4680BC704780B485B0F0
:10297C0000AF786039607B6893F83C30012B01D153
:10298C00022341E07B68012283F83C207B68022211
:10299C0083F83D207B681B685B68FB607B681B6869
:1029AC009B68BB60FB6823F07003FB603B681B6893
:1029BC00FA681343FB607B681B68FA685A607B6893
:1029CC001B68144A934209D07B681B68B3F1804F93
:1029DC0004D07B681B68104A93420CD1BB6823F06F
:1029EC008003BB603B685B68BA681343BB607B6861
:1029FC001B68BA689A607B68012283F83D207B686B
:102A0C00002283F83C20002318461437BD4680BCB6
:102A1C00704700BF002C01400004004080B483B01C
:102A2C0000AF786000BF0C37BD4680BC704780B4E7
:102A3C0083B000AF786000BF0C37BD4680BC7047D8
:102A4C0080B582B000AF78607B68002B01D1012388
:102A5C003FE07B6893F83D30DBB2002B06D17B68FE
:102A6C00002283F83C207868FEF7C8FB7B682422A0
:102A7C0083F83D207B681B68DA687B681B6822F44E
:102A8C000052DA60786800F005F97B681B681A69F7
:102A9C007B681B6822F490421A617B681B685A6938
:102AAC007B681B6822F02A025A617B681B68DA6813
:102ABC007B681B6842F40052DA607B6800221A645F
:102ACC007B68202283F83D207B68202283F83E20FF
:102ADC00002318460837BD4680BD80B58AB002AFCA
:102AEC00F860B9603B601346FB8000237B61FB6898
:102AFC0093F83D30DBB2202B7CD1BB68002B02D08D
:102B0C00FB88002B01D1012375E0FB6893F83C3066
:102B1C00012B01D102236EE0FB68012283F83C20DB
:102B2C00FB6800221A64FB68212283F83D20FEF723
:102B3C008FFC7861FB68FA889A84FB68FA88DA84DF
:102B4C00FB689B68B3F5805F08D1FB681B69002BA1
:102B5C0004D10023FB61BB68BB6103E0BB68FB6174
:102B6C000023BB61FB68002283F83C202AE03B6811
:102B7C0000937B6900228021F86800F040F803463E
:102B8C00002B01D0032336E0FB69002B0BD1BB6972
:102B9C001B881A46FB681B68C2F308025A60BB69A3
:102BAC000233BB6107E0FB691A78FB681B685A604B
:102BBC00FB690133FB61FB68DB8C9BB2013B9AB276
:102BCC00FB68DA84FB68DB8C9BB2002BCFD13B68B3
:102BDC0000937B6900224021F86800F010F803464E
:102BEC00002B01D0032306E0FB68202283F83D2054
:102BFC00002300E0022318462037BD4680BD80B577
:102C0C0084B000AFF860B9603B601346FB712CE0F8
:102C1C00BB69B3F1FF3F28D0BB69002B07D0FEF78F
:102C2C0017FC02463B68D31ABA699A421DD2FB685C
:102C3C001B68DA68FB681B6822F4D072DA60FB68E8
:102C4C001B685A69FB681B6822F001025A61FB6819
:102C5C00202283F83D20FB68202283F83E20FB686D
:102C6C00002283F83C2003230FE0FB681B681A68E2
:102C7C00BB681340BA689A420CBF01230023DBB235
:102C8C001A46FB799A42C3D0002318461037BD462A
:102C9C0080BD000080B584B000AF78607B681B6895
:102CAC001B6923F440517B68DA687B681B680A4314
:102CBC001A617B689A687B681B691A437B685B693D
:102CCC001343BB607B681B68DB6823F4B05323F0B1
:102CDC000C037A681268B9680B43D3607B681B6875
:102CEC005B6923F440717B689A697B681B680A43B3
:102CFC005A617B681B682C4A934203D1FFF780FA18
:102D0C00F86002E0FFF768FAF860FA6813469B0077
:102D1C0013449A001A447B685B689B00B2FBF3F384
:102D2C00224AA2FB03235B091901FA6813469B0094
:102D3C0013449A001A447B685B689B00B2FBF3F265
:102D4C001A4BA3FB02035B09642000FB03F3D31AA9
:102D5C001B013233154AA2FB03235B0903F0F0037A
:102D6C001944FA6813469B0013449A001A447B6872
:102D7C005B689B00B2FBF3F20C4BA3FB02035B09F9
:102D8C00642000FB03F3D31A1B013233074AA2FB66
:102D9C0003235B0903F00F027B681B680A449A60EB
:102DAC0000BF1037BD4680BD003801401F85EB5178
:102DBC0010B591FBF2F4002902FB141306DB002B77
:102DCC0001DA01349B1AC0E9004310BD002BC4BFCB
:102DDC0004F1FF349B18F6E7014B1868704700BFED
:102DEC000C00002070B500260C4D0D4C641BA4107B
:102DFC00A64209D100F06AF900260A4D0A4C641B60
:102E0C00A410A64205D170BD55F8043B9847013675
:102E1C00EEE755F8043B98470136F2E748310008D5
:102E2C0048310008483100084C3100080346024480
:102E3C00934200D1704703F8011BF9E72DE9F843E1
:102E4C001F4680468946164600F02EF8154B044660
:102E5C0093F900300D46013320D032463B463046C4
:102E6C003946FDF7CBFDC8B942464B46404649466C
:102E7C00FDF7C4FD90B90022002330463946FDF71A
:102E8C008BFD58B1FFF7A8FF21230022036000231C
:102E9C0010461946FDF742FC04460D4620462946CD
:102EAC00BDE8F883700000202DE9F04723F00048BE
:102EBC0007461D46184658EA02030E461446944629
:102ECC0096460DD07B4A21F0004393428A4607DC9C
:102EDC0062427949224348EAD2728A420A460CD9A4
:102EEC000346224638463146FDF7EEFA02460B46BB
:102EFC00FDF714FC07460E460FE04345B94639462C
:102F0C0006F000440DDC08DB674506D309D16B4A9B
:102F1C00E40F02EBC404D4E9007638463146BDE830
:102F2C00F0871AEA020F4AD1002B41D14A46644875
:102F3C00002A3ADC604A2A40002A4FD1B8F1000F2F
:102F4C0044D16646A2F21342002E3CDC5D4EB042E8
:102F5C0049DBCAF3130343F480135A4EB24254DBD9
:102F6C00C5F3130545F48015801A5E1BA1EB0E0703
:102F7C00002861D1714538BF06F1FF36002EA4BF81
:102F8C003946334653EA0100C1D0B3F5801F68DBE4
:102F9C004C4882426BDBA3F5801302F2FF321C43D8
:102FAC0044EA02590F464E46B7E701385200BFE7D4
:102FBC004448DA02002ABDDD01385200FAE7181540
:102FCC00A0F2FF30B6E7013A7600BDE73D4A4FEA82
:102FDC00C826002EBADD013A7600FAE74FEA2852ED
:102FEC00A2F2FF32B2E7311A1F2908DC00F21E46AA
:102FFC008B4029FA06F6334309FA01F1ADE7324B5F
:10300C0000211B1A09FA03F3A7E7A6EB020EBEF187
:10301C001F0F0ADC02F21E4508FA0EF82CFA05F511
:10302C0045EA08050CFA0EFE9EE7274D4FF0000E00
:10303C00AD1A0CFA05F597E7714538BF06F1FF3666
:10304C00002E05DACE0F06EB4303490001388CE75E
:10305C0056EA07033FF45BAFFB0F03EB4603790023
:10306C00F4E7C80F00EB43034900013A8DE7801ADF
:10307C0014280ADC02F21E4203FA02F2C1400A438F
:10308C000341104643EA040134E71F2807DC02F22F
:10309C001E42C14003FA02F20A432346F1E7C2F191
:1030AC007F4202F57F0202F57B42E23243FA02F2E2
:1030BC00F3E700BFFFFFEF7F0000F07F383100081F
:1030CC00EDFBFFFF02FCFFFFE2FBFFFFF8B500BFCB
:1030DC00F8BC08BC9E467047F8B500BFF8BC08BCED
:0430EC009E46704745
:1030F00030303A30303A3030000000005541525400
:1031000020696E697469616C697A65640000000009
:1031100002030405060708090A0B0C0D0E0F101018
:103120000000000000000000010203040607080977
:103130000000000001020304000000000000000085
:08314000000000000000008007
:043148003101000849
:04314C000D01000869
:103150000024F40010000000010000001000002016
:10316000000000000000000000000000000000005F
:10317000000000000000000000000000000000004F
:10318000000000000000000000000000000000003F
:10319000000000000000000000000000000000002F
:1031A000000000000000000000000000000000001F
:1031B000000000000000000000000000000000000F
:0431C000FF0000000C
:04000005080013617B
:00000001FF
