:03000000020935BD
:0C093500787FE4F6D8FD75810902097C8A
:0A0A7B00C0F9A4B0999282F88090AF
:060A85000109000108FF59
:040A6C007F507EC376
:0B0A7000EF1FAC0670011E4C70F62258
:10089B007580FF7C277D10120A17AE04AF05E509A2
:1008AB001460181460301460532403706CC290C22F
:1008BB0091C292C2937C037DE88034D290C291D2D4
:1008CB0092D2937C037DE8120A177E007F64CFCD12
:1008DB00CFCECCCE8019D290D291C292D2937C0043
:1008EB007D64120A177E007F0ACFCDCFCECCCE12FD
:1008FB000A17747B2FF582740A3E8017D290D2911F
:10090B00D292C2937C007D0A120A17747B2DF5825A
:10091B00740A3CF583E493F5800509D3E509940348
:0A092B00748094804003E4F5092273
:1009C100E4FDE5B054FC64FC6042D295D2947F0A08
:1009D1007E00120A70E5B054FC65086036E5B0543B
:1009E100FCF50820B7030D802A20B6047D02802380
:1009F10020B5047D03801C20B4047D04801520B340
:100A0100047D05800E20B20B7D0680077508FCC2AF
:050A110095C294AF0541
:010A160022BD
:100800007BD27A04C295C294E4FDEDC3940874804F
:1008100094805010E5A025E0F5A07F887E13120A91
:10082000700D80E675900F75A0FFE4F580C29312FD
:100830000A6CD293C292120A6CD292C291120A6CC2
:10084000D291C290120A6CD29075A0551209C1EFD4
:1008500024FE601714601B14601C14601D146023B8
:10086000240570270BBB00010A8020EB1B701C1AAB
:100870008019740A800674F6800B74642BFBE43ACA
:10088000FA8008749C2BFB74FF3AFAAF03AE021295
:0B089000089B7F647E00120A7080AE9F
:10094100020800E493A3F8E493A34003F68001F2C4
:1009510008DFF48029E493A3F85407240CC8C333B7
:10096100C4540F4420C8834004F456800146F6DF86
:10097100E4800B0102040810204080900A85E47E87
:10098100019360BCA3FF543F30E509541FFEE4937B
:10099100A360010ECF54C025E060A840B8E493A342
:1009A100FAE493A3F8E493A3C8C582C8CAC583CA6D
:1009B100F0A3C8C582C8CAC583CADFE9DEE780BE25
:010A8B00006A
:100A1700BC000BBE0029EF8DF084FFADF022E4CCC3
:100A2700F875F008EF2FFFEE33FEEC33FCEE9DEC8C
:100A3700984005FCEE9DFE0FD5F0E9E4CEFD22EDD2
:100A4700F8F5F0EE8420D21CFEADF075F008EF2F1C
:100A5700FFED33FD4007985006D5F0F222C398FD0D
:050A67000FD5F0EA22AA
:00000001FF
